:400000000080002011000000550700005507000008B5044B1A6803F53F5302331A6000F0A1FB00BFFA46004010B5054C237833B9044B13B10448AFF300800123237010BD23
:400040004081FF1F00000000080A0000084B10B51BB108490848AFF300800848036803B910BD074B002BFBD0BDE81040184700BF000000004481FF1F080A0000C880FF1FEE
:4000800000000000F0B5A1B062B6BF4E1AAC35460FCD0FC495E8030084E8030013AC06F118050FCD0FC495E8070084E8070007AC06F134050FCD0FC40FCD0FC495E80F0000
:4000C00084E80F0001AD06F164040FCC0FC594E8030085E8030000F0CDFB002505263746AA4800F0E1FB00F02DFC0128F8D100240EE020AB03EB840313F8180C00F0E6FB3A
:4001000020AB03EB850353F8640C00F005FC0134042CEEDD002000F0D9FB0024C2E020AB03EB840313F8340C00F0DCFB20AB03EB850353F8640C00F0EFFB00F00BFC0128B0
:4001400059D1033C012C01D80135AEE0013E20AB03EB870313F87C0C00F0B8FB20AB03EB860313F87C0C00F0BDFB4FF4C87000F0D3FB002000F0AAFB002000F0B3FB052F37
:4001800003D1834800F090FB14E0042F03D1814800F08AFB0EE0032F03D17F4800F084FB08E0022F03D17D4800F07EFB02E07C4800F07AFB052E04D17A4800F075FB00254D
:4001C00073E0042E04D1784800F06EFB00256CE0032E04D1754800F067FB002565E0022E04D1734800F060FB00255EE0714800F05BFB002559E0052C53D1013E20AB03EB84
:40020000870313F87C0C00F061FB20AB03EB860313F87C0C00F066FB4FF4C87000F07CFB002000F053FB002000F05CFB052F03D1574800F039FB14E0042F03D1554800F035
:4002400033FB0EE0032F03D1534800F02DFB08E0022F03D1514800F027FB02E0504800F023FB052E04D14F4800F01EFB002518E0042E04D14C4800F017FB002511E0032EE0
:4002800004D14A4800F010FB00250AE0022E04D1474800F009FB002503E0464800F004FB00250134052C7FF73AAFEEB9424800F0FBFA002000F00AFB002000F013FB41F25A
:4002C000883000F029FB0BE720AB03EB840313F8180C00F007FB20AB03EB850353F8640C00F01AFB013400E00024042CECDD002000F0F8FA0024DCE020AB03EB840313F87F
:40030000340C00F0E3FA20AB03EB850353F8640C00F002FB00F016FB012873D1033C012C01D80135C8E0013F20AB03EB870313F87C0C00F0CBFA20AB03EB860313F87C0C96
:4003400000F0D0FA4FF4C87000F0E6FA002000F0BDFA002000F0C6FA052F03D10C4800F0A3FA2EE0042F03D10A4800F09DFA28E0032F03D1084800F097FA22E0022F1DD10A
:40038000064800F091FA1CE00C0A0000880A0000AC0A0000C40A0000DC0A0000F40A00000C0B0000240B00003C0B0000540B00006C0B0000840B00009C0B0000474800F050
:4003C00073FA052E04D1464800F06EFA002573E0042E04D1434800F067FA00256CE0032E04D1414800F060FA002565E0022E04D13E4800F059FA00255EE03D4800F054FA9F
:40040000002559E0052C53D1013F20AB03EB870313F87C0C00F05AFA20AB03EB860313F87C0C00F05FFA4FF4C87000F075FA002000F04CFA002000F055FA052F03D12D4885
:4004400000F032FA14E0042F03D12B4800F02CFA0EE0032F03D1294800F026FA08E0022F03D1274800F020FA02E01C4800F01CFA052E04D11A4800F017FA002518E0042EFB
:4004800004D1184800F010FA002511E0032E04D1154800F009FA00250AE0022E04D1134800F002FA002503E0114800F0FDF900250134052C7FF720AF002F7FF418AE11486E
:4004C00000F0F2F9002000F001FA002000F00AFA41F2883000F020FA02E600BF0C0B0000240B00003C0B0000540B00006C0B0000840B0000AC0A0000C40A0000DC0A00000A
:40050000F40A0000AC0B0000FEE700BFF0B40022174611E050F82760F3B226F0FF0608E001EB420511F812406D78A5550132013BDBB2002BF4D10137082FEBD9F0BC7047E8
:40054000064B1B78DBB203F00701054A11701B09013213704422034B1A707047CF0100496E5800407658004008B50A46002100F042FA08BD38B53322244B1A80182202336A
:400580001A70022203F27E231A7008224FF040231A70032103F5007319701D4B1B78DBB21C490B701C4B1A8041F25122023B1A80002419250CE0194B1B7803F0010343EAB0
:4005C000440404F003044FF4F07000F0CDF9013D0DB1032CEFD115B90320FFF795FF104B4FF480721A8007221A7000220D490A704820023108701A700222033B1A700A4A4D
:40060000137843F00103137038BD00BF8040004008010049A146004022420040254200400440004006400040A243004008B500F0D7F908BD38B572B6354A137843F0040333
:40064000137000240CE0334D630019194A0011462A44084691882858FFF786FF0134E4B2072CF0D900240BE02A49A3001819420088188022416B006BFFF7D8FF0134E4B211
:40068000002CF1D024494FF09040FFF73FFF234A137843F0020313701032137843F0020313701F4C237843F040032370A2F58632513A137843F010031370082219491A4837
:4006C000FFF7B4FF0A2219491948FFF7AFFF082218491948FFF7AAFF082218491848FFF7A5FF184A137843F008031370164D61232B70FFF73FFF81232B700122134B1A7000
:40070000FFF71EFF0E2221461148FFF78FFF38BDE8460040C00B00002400004803500140A0430040D002004802510040D8020048C0510040E402004812510040EC020048BA
:4007400022510040224300400048004004000840B043004008B500F017F903680C2B00D1FEE7FEE708B5104E104D16E029686B68AC68002204E051F8040B43F8040B04325C
:40078000A242F8D1E868002203E0002143F8041B04328242F9D11035013E002EE6D100F0F9F8FFF76FFCFEE701000000200C000008B5104A104B1A60104A136843F40073D0
:4007C000136000230AE0032B03D80D4A52F8231000E00C490C4A42F8231001332F2BF2D90A4B1A780A4B1A70074A0A4B1A60FFF721FF08BD0004FA050CED00E014ED00E0CD
:4008000000000000550700000080FF1FBC760040C080FF1F08ED00E07222074B1A70202201331A7006225F3B1A70472210331A70002251331A7070478865004010B500F05E
:400840009BF804460A4A137843F0200313700132137843F0100313700232137843F01003137000F04BF8204600F08AF810BD00BF9865004008B5054B1B7823B9FFF7CCFFC3
:400880000122024B1A70FFF7D9FF08BD5C81FF1F034B1B7813F0040FFAD1024B187070476B6500404B65004038B5074B1B782BB938BDFFF7EDFF0134A4B201E005460024FA
:4008C000285D0028F5D138BD5C81FF1F044A137803F00703C000C0B218431070704700BF00510040044A137803F00703C000C0B218431070704700BF20510040054A1378C7
:4009000043F0010313701032137843F001031370704700BFA243004010B5044605E0084B186800F021F8A4F50044B4F5004FF6D8034B586800FB04F000F016F810BD00BFE1
:40094000CC80FF1F024B1878C0F3C000704700BFC1510040024B1878C0F34010704700BFC1510040000000000230800803D000BF01380046FCD17047EFF3108072B67047AD
:4009800080F31088704700BF014B1868704700BF3C81FF1F0E4B70B51E460E4C0025E41AA410A54204D056F8253098470135F8E700F024F9084B094C1E46E41AA410002544
:4009C000A54204D056F8253098470135F8E770BD080C0000080C0000080C0000100C000010B5431E0A44914204D011F8014B03F8014FF8E710BD03460244934202D003F888
:400A0000011BFAE7704700000000000001000000020000000400000008000000100000000000000010000000080000000400000002000000010000000000000000000000C4
:400A40005802000058020000F4010000F401000090010000900100002C0100002C010000C8000000C8000000640000006400000000000000010000000300000007000000F9
:400A80000F0000001F000000507265737320746865206C65667420627574746F6E20746F2073746172740A0D000000000A0D506C617965722031206861732035206C6976BA
:400AC000657300000A0D506C617965722031206861732034206C6976657300000A0D506C617965722031206861732033206C6976657300000A0D506C617965722031206832
:400B000061732032206C6976657300000A0D506C617965722031206861732031206C6976657300000A0D506C617965722032206861732035206C6976657300000A0D506CEA
:400B4000617965722032206861732034206C6976657300000A0D506C617965722032206861732033206C6976657300000A0D506C617965722032206861732032206C6976C8
:400B8000657300000A0D506C617965722032206861732031206C6976657300000A0D506C61796572203120776F6E21000A0D506C6179657220322068617320776F6E210066
:400BC000305100404000F0510040100000000140001000140140000480180140800300400140000A004C01400002005001402000001801405002004880004300F8B500BF70
:400C0000F8BC08BC9E4670474D000000B1070000F8B500BFF8BC08BC9E46704729000000300C0000C880FF1F7800000020000000000000000000E02EC05D00001800000077
:400C400000366E010000000000000000000000000000000000000000000000000000000000000000FA0B0000000000000000000000000000000000000000000000000000CA
:400C8000000000000000000000000000000000000000000000000000000000000000000000000000DC80FF1F000000000000000000000000000000000000000000000000BA
:400CC00000000000000000000000000000000000000000000000000000000000000000000000000000000000000000000000000000000000000000000000000000000000F4
:400D000000000000000000000000000000000000000000000000000000000000000000000000000000000000000000000000000000000000000000000000000000000000B3
:400D40000000000000000000000000000000000000000000000000000000000000000000000000000000000000000000000000000000000000000000000000000000000073
:400D80000000000000000000000000000000000000000000000000000000000000000000000000000000000000000000000000000000000000000000000000000000000033
:020000040003F7
:0200000480007A
:4000000002520040036500401418014038190140691A0140521B0140014C0140074D01400250014061806440887289388B0F800886048A029602A101A401A801AC01B002FE
:40004000B204B401B501B608BE41BF10D418D804D904DB04DF010010010A054906080A200C410D020E0A0F20102A1682172019101A011B151D211E1A23082410250A270182
:400080002B402C452E0835593D803EA23F084444452847404E104F2055015B015E10600463026C2A6E046F087540762877208601C0FEC2F4C4D7CAF1CCF0CEF0D0F0D220A4
:4000C000D621D80CE00802030410060C070808100C090D800E100F131220152C16201743180C19711A111B06230C24142571270E281C2A02301F31C0330F342035303922D4
:400100003B083E103F104002450449FF4A074BFF4C404D204EF04F055008580459045A045F01604061A862406320814882358334844A85F8863488138A2C8D208E488FC2E8
:4001400093019501980399909A149B2CA101A413A664A9F8AA40AF01B010B106B268B301B40FB518B7E0B908BA28BE01BF01C024C103C50CC6CEC70BC81DC9FFCAFFCBFFD1
:40018000CEF0CF44D00CD401D804D904DA04DB04DF01E6C0EA40EB0200600102020103100440051006400720081009090F081108120814101604180419021D141E40204093
:4001C000211022082320254826102740281029042A012C412F083110320833103501361438803A043B043D803E06411044104640471048104B044F0850405240550457500D
:400200005D015E405F18633079017B4089088A0292049404984199019B089D0A9F40A101A204A308A540A610A740B212C0FFC24EC466CAB3CCE6CEDAD0E4D6F08710104032
:40024000731088409310C408DC01E20110011C011F802000010000040418000008C000001C1C23E10044230033000CE33F10000003FF0000000800000CE70018023C00C205
:400280002C1F10380F0000C00000A2020000040026040300010C00E021FFFFFF62A0F0410C00000000000211040404040000000100000000000040020010301000101012D5
:4002C0000000000000000000000000000000000000F8F80000000000800068808000800000000000000B0B000000000000F8F80000000000000000000000000000000000A0
:4003000000000000000000000000000000000000000000000000000000000000000000000000000000000000000000000000000000000000000000000000000000000000BD
:40034000000000000000000000000000000000000000000000000000000000000000000000000000000000000000000000000000000000000000000000000000000000007D
:40038000000000000000000000000000000000000000000000000000000000000000000000000000000000000000000000000000000000000000000000000000000000003D
:4003C00000000000000000000000000000000000000000000000000000000000000000000000000000000000000000000000000000000000000000000000000000000000FD
:0200000490006A
:0400000000004005B7
:0200000490105A
:04000000BC90ACAF55
:0200000490303A
:02000000DD6EB3
:0200000490402A
:4000000000000000000000000000000000000000000000000000000000000000000000000000000000000000000000000000000000000000000000000000000000000000C0
:400040000000000000000000000000000000000000000000000000000000000000000000000000000000000000000000000000000000000000000000000000000000000080
:400080000000000000000000000000000000000000000000000000000000000000000000000000000000000000000000000000000000000000000000000000000000000040
:4000C0000000000000000000000000000000000000000000000000000000000000000000000000000000000000000000000000000000000000000000000000000000000000
:0200000490501A
:0C00000000012E16106900012E1AEDD729
:00000001FF